:100000000C946B000C9493000C9493000C940204D9
:100010000C9402040C9402040C9493000C9493002E
:100020000C9493000C9493000C9493000C94930004
:100030000C9493000C9493000C9493000C949300F4
:100040000C94890A0C9493000C94F8080C94D20830
:100050000C9493000C9493000C9493000C949300D4
:100060000C947C040C949300000000080002010032
:100070000003040700000000000000000000000072
:10008000240027002A007C3C3E5E2B3D3F2F5B5D19
:100090003B2C2A225C0000000000250028002B00D9
:1000A00000000000230026002900040404040404C6
:1000B0000404020202020202030303030303010217
:1000C00004081020408001020408102001020408E6
:1000D00010202623DF1F11241FBECFEFD8E0DEBF84
:1000E000CDBF27E0AAEEB1E001C01D92A032B20759
:1000F000E1F711E0A0E0B1E0E8E8F0E502C005902A
:100100000D92AA3EB107D9F710E0CAE6D0E004C0CC
:100110002197FE010E94FE25C936D107C9F70E942A
:1001200007200C9437280C940000DC015996ED91BF
:10013000FC915A973097B9F083899489A589B6893B
:100140004285538564857585841B950BA60BB70B7B
:10015000811520E89207A105B10538F08FEF9FE7E0
:10016000A0E0B0E0089580E090E00895CF93DF93A1
:100170001F92CDB7DEB76983DC01ED91FC9102805F
:10018000F381E02D41E050E0BE016F5F7F4F0995A4
:100190000F90DF91CF9108952091730230917402F6
:1001A0002817390771F490917102809172029817A3
:1001B00041F0E0917102F0E0EF5CFD4F808190E052
:1001C00008958FEF9FEF089508951F93CF93DF93C6
:1001D000DC015C962D913C915D972115310539F438
:1001E00081E090E013969C938E9312973DC05196B8
:1001F000ED91FC91529750969C915097892F809544
:100200001FB75E964C915E9741FB772770F941FDD1
:100210006095F8944081772311F0492B01C0482361
:100220004083E9012197F1F748E0508160FF02C067
:10023000592B01C058235083E9012197F1F76695A6
:10024000415099F7772321F090818923808303C05F
:100250008081982B90831FBF5C968D919C915D97B8
:100260000197F1F721E030E0C901DF91CF911F91B3
:10027000089520917302309174022817390771F4A0
:10028000809172022091710290E0805C9F4F821BEE
:10029000910960E470E00E94B425089580E090E048
:1002A0000895209173023091740228173907B9F428
:1002B0009091710280917202981789F0E091710219
:1002C000F0E0EF5CFD4F80812091710230E02F5F04
:1002D0003F4F2F7333272093710290E008958FEFE3
:1002E0009FEF089585ED8093BC008091BC0084FD54
:1002F000FCCF10929E02089540910C02262F30E010
:10030000240F311D21323105DCF420919E0224306E
:10031000C9F4FC0180E090E0861758F430910C029B
:100320002191DC01A651BE4FA30FB11D2C93019664
:10033000F3CF80910C02680F60930C0280E0089567
:1003400081E0089582E00895089581E090E0309181
:10035000770220917602321710F480E090E09195B8
:10036000819591090895809177029091760289177D
:1003700030F48F5F8093770280E090E008958FEFF4
:100380009FEF08958091760290E020917702821B82
:1003900091090895CF92DF92EF92FF920F931F93EE
:1003A000CF93DF937C01262F972F8A0180919F02A4
:1003B000882391F0C62FD72F6E01C40ED51ECC1501
:1003C000DD0571F06991D701ED91FC910190F0810B
:1003D000E02DC7010995F3CF642F822F0E947C0185
:1003E000C801DF91CF911F910F91FF90EF90DF90A7
:1003F000CF900895CF93DF931F92CDB7DEB7698377
:1004000020919F022223D1F02091C102203240F09E
:1004100021E030E0FC013383228380E090E015C0CE
:100420008091A002E82FF0E0EF55FD4F9981908375
:100430008F5F8093A0028093C10205C061E0CE016E
:1004400001960E947C0181E090E00F90DF91CF91B6
:100450000895089580E090E00895CF93DF93EC0134
:100460002F8D8D8D9E8DDC01ED91FC910190F081A1
:10047000E02D222321F06C8D09951F8E04C06B8D19
:10048000099581E08F8FDF91CF910895FC01818DD7
:10049000928D009711F00C94130E0895CF93DF9373
:1004A000EC01898D9A8D009739F481E090E09B836F
:1004B0008A8380E090E00BC0FC01138212820E94CC
:1004C000E70EE98DFA8D22813381232B71F7DF91BD
:1004D000CF910895CF93DF93EC0144960E947C1452
:1004E000CE010C960E947C14CE0106960E947C14CC
:1004F000CE01DF91CF910C947C14CF93DF93EC016C
:10050000898D9A8D009741F00E949614898D9A8D5D
:100510000E9499261A8E198EDF91CF910895EF923D
:10052000FF920F931F93CF93DF93EC017B018A011E
:100530001B821A8288EE93E0A0E0B0E08C839D835A
:10054000AE83BF8388E591E0998388838DE190E055
:100550000E9404269A8F898F009779F02DE1F70188
:10056000DC0101900D922A95E1F74CE050E0B801D2
:10057000CE010C960E942828188EDF91CF911F91F2
:100580000F91FF90EF9008952F923F924F925F92BC
:100590006F927F928F929F92AF92BF92CF92DF9293
:1005A000EF92FF920F931F93CF93DF9300D0CDB7BD
:1005B000DEB7FC018581882309F4D9C0848180FFDE
:1005C000D6C021E02A83438954896589768982854A
:1005D0009385A485B585481759076A077B0709F4F1
:1005E0001A826F013A81832F90E0DE0111964D014E
:1005F0003F01B6E06B0E711C892B09F47DC0D6015A
:100600001A964D915D916D917C911D975A01B1E0C3
:10061000BB22F60125811A012B0189E056944794EB
:10062000379427948A95D1F7838D948D223061F485
:10063000FC01828D938DA48DB58DBC01CD01620D21
:10064000731D841D951D45C0DC0114961C9111502D
:100650001221A114B104D1F4111118C0452B462B5D
:10066000472B51F4F6018789908DA18DB28D868339
:100670009783A087B1870AC04681578160857185BD
:1006800093010E94260D882309F471C0F601238D81
:10069000348D86819781A085B1850297A109B10922
:1006A000AC01BD01F901058404C0440F551F661F4C
:1006B000771F0A94D2F786859785A089B189840F20
:1006C000951FA61FB71FBC01CD01610F711D811DB4
:1006D000911DD60114962C9126FF14C000910001A3
:1006E00010910101209102013091030160177107FF
:1006F0008207930751F506C0FA81FF23C1F1898172
:1007000090E037C040E00E943D0C882381F1F50164
:10071000ED52FD4FD401CF010196E817F90719F00A
:1007200021912D93FACFEFEF8E1A9E0AF601828562
:100730009385A485B5850196A11DB11D82879387F8
:10074000A487B58780E090E057CF740101E010E006
:100750009501AB01BC018091D3049091D4040E9417
:10076000A718882321F0BFEF8B1A9B0ADFCF8FEFEA
:100770009FEF0F900F90DF91CF911F910F91FF90FE
:10078000EF90DF90CF90BF90AF909F908F907F9031
:100790006F905F904F903F902F900895FC01818D56
:1007A000928D009711F00C94C4028FEF9FEF089583
:1007B0000F931F93CF93DF93FC01818D928D009750
:1007C000B9F0EF010E94C4028C010F3F8FEF1807B0
:1007D00091F0898D9A8DFC014285538564857585DC
:1007E00041505109610971090E94510EC80105C0AB
:1007F00080E090E002C08FEF9FEFDF91CF911F91DB
:100800000F9108951F920F920FB60F9211242F93FC
:100810003F934F935F936F937F938F939F93AF9388
:10082000BF93EF93FF93E0917302F09174023097BE
:1008300009F451C0968DA685B785858591FF04C0C2
:100840009C91892329F447C09C91892309F043C0D6
:10085000A389B4899C918589809589238C93868905
:1008600097890197F1F7608D718DA685B7855585BC
:1008700038E020E0CB010197F1F7822F90E09595C9
:100880008795282F4C91452309F02068315091F726
:10089000868D81FD20958091720290E001968F7384
:1008A000992730917102381749F0A0917202B0E097
:1008B000AF5CBD4F2C938093720203C0868D816024
:1008C000868F828D938D0197F1F7A389B4899C91CE
:1008D0008589892B8C93FF91EF91BF91AF919F9167
:1008E0008F917F916F915F914F913F912F910F90D9
:1008F0000FBE0F901F9018951F920F920FB60F9278
:1009000011242F933F934F935F936F937F938F9314
:100910009F93AF93BF93EF93FF938091B900887F2C
:10092000803609F49CC068F5883209F45BC090F405
:10093000803109F454C038F4882309F4F6C08830B3
:1009400009F44DC0F6C0883109F44CC0803209F476
:100950005DC0EFC0803409F468C048F4803309F406
:1009600055C0883309F0E5C080939C02D8C080351B
:1009700009F44FC0883509F45DC0883409F0D9C046
:10098000D6C0883909F4C7C0A8F4883709F467C00D
:1009900038F4883609F463C0803709F460C0C9C0F0
:1009A000883809F4B8C0803909F45FC0803809F08C
:1009B000C0C05BC0803B09F486C038F4803A09F4BB
:1009C00066C0883A09F47FC0B4C0803C09F4A7C06F
:1009D000883C09F4A4C0883B09F48AC0AAC080916D
:1009E000790210C090919B0280919A02981770F53D
:1009F000E0919B0281E08E0F80939B02F0E0E6582D
:100A0000FD4F80818093BB0085EC86C080939C0263
:100A10008EC0E0919B0281E08E0F80939B028091BB
:100A2000BB00F0E0E658FD4F808390919B028091DF
:100A30009A026EC0E0919B0281E08E0F80939B0230
:100A40008091BB00F0E0E658FD4F808380919D02CD
:100A500081116DC081E08093780284EA61C083E0F7
:100A600080939E0210923002CFCF8091300280326C
:100A700008F051C0E091300281E08E0F8093300287
:100A80008091BB00F0E0E05FFD4F8083BDCF85EC3F
:100A90008093BC0010929E0280913002803230F42C
:100AA000E0913002F0E0E05FFD4F10826091300293
:100AB00070E0E0910E02F0910F0280E192E0099562
:100AC0001092300236C084E080939E0210920D0294
:100AD00010920C02E0910A02F0910B0209958091AC
:100AE0000C02811105C081E080930C021092EA0192
:100AF000E0910D0281E08E0F80930D02F0E0E6514F
:100B0000FE4F80818093BB0090910D0280910C027A
:100B1000981708F479CF85E88093BC000AC085EC6B
:100B20008093BC0010929E0204C010929C020E940E
:100B30007201FF91EF91BF91AF919F918F917F9142
:100B40006F915F914F913F912F910F900FBE0F903A
:100B50001F901895CF93DF93EB012A813B81FC0115
:100B6000338322834C815D816E817F8144835583F1
:100B700066837783488559856A857B854087518759
:100B8000628773872DE0FE013C96DC011C96019084
:100B90000D922A95E1F7298D3A8DFC01328F218F34
:100BA000DF91CF9108953F924F925F926F927F9223
:100BB0008F929F92AF92BF92CF92DF92EF92FF926D
:100BC0000F931F93CF93DF9300D000D01F92CDB728
:100BD000DEB79D838C83362E250162E971E02A837E
:100BE0003B8349830E9481146C807D8086E0680E7F
:100BF000711C62E971E0C3010E9481148C809D80A8
:100C0000ECE08E0E911C62E971E0C4010E94811437
:100C1000AC80BD80F4E1AF0EB11C62E971E0C501AA
:100C20000E94811482E4EC81FD81828F338E4981A0
:100C3000448F2A813B81368F258FB801CF010E94D6
:100C40005B14B701C3010E945B14B601C4010E948A
:100C50005B14B201C5010F900F900F900F900F9091
:100C6000DF91CF911F910F91FF90EF90DF90CF9088
:100C7000BF90AF909F908F907F906F905F904F90BC
:100C80003F900C945B14CF93DF93EC0188810E941A
:100C90002A0921E0892B09F420E02983822FDF91A2
:100CA000CF910895CF92DF92FF920F931F93CF932E
:100CB000DF93CDB7DEB76B970FB6F894DEBF0FBEEC
:100CC000CDBF8C0168EC70E080E090E00E94430AA8
:100CD000FF24F3948091D3060E942A0921E0892BF6
:100CE00009F420E02093D4062223A1F1F11022C0C0
:100CF0000AC01092D20664E670E080E090E00E94A4
:100D0000430ADD2029F36801F6E0CF0ED11CFF2055
:100D100009F4B6C08091D3060E942A0921E0892BEC
:100D200009F420E02093D406222309F443C0F110F3
:100D300032C0A6C085ED96E00E944306811106C030
:100D400087ED96E00E944306882321F20E94CB1390
:100D5000F12CC0CFFF20B9F20E946D128091D20613
:100D60008B3060F0C8010E9452138091D206F801C6
:100D7000828B0E94D512DD24D39401C0D12C909196
:100D8000D206ECE4F6E080E0891709F4B2CF1192C4
:100D900011928F5FF9CF85ED96E00E944306811195
:100DA00007C087ED96E00E944306882309F4B2CF7E
:100DB000F12CB0CFFF2009F463C00E946D12809126
:100DC000D2068B3008F44BC0C6010E9452138091AA
:100DD000D206F801838B6FEA77E1848595850E94BE
:100DE000BD1B882339F064E677E1F8018485958599
:100DF0000E94BD1BF8016485758543E1CE01019613
:100E00000E94DB1EBE016F5F7F4F85EF96E00E9460
:100E1000AA0585EF96E00E94F7198823E1F0F80112
:100E2000628970E080E090E04AE00E94111380E95E
:100E300091E00E94F912F801638970E080E090E08F
:100E40004AE00E94111380E991E00E94F91285EFB7
:100E500096E00E947D020E94D51281E001C080E0F0
:100E60002091D206ECE4F6E090E0921721F0119286
:100E700011929F5FFACF1092D206882309F447CFD0
:100E80006B960FB6F894DEBF0FBECDBFDF91CF914A
:100E90001F910F91FF90DF90CF900895CF93DF9334
:100EA000EC01BC0142960E94301A882329F0CE0141
:100EB000DF91CF910C942D02BE016A5F7F4FCE016E
:100EC00043960E94301A8111F2CFBE016C5E7F4FB3
:100ED000CE014A960E94301A8111E9CFDF91CF915D
:100EE0000895CF92DF92EF92FF920F931F93CF93CB
:100EF000DF936C017A018B01C0E0D0E0CE15DF05F5
:100F000089F0D8016D918D01D601ED91FC91019090
:100F1000F081E02DC6010995892B11F47E0102C0F4
:100F20002196ECCFC701DF91CF911F910F91FF90D8
:100F3000EF90DF90CF900895FC01538D448D252FC5
:100F400030E0842F90E0821B930B541710F0CF9663
:100F5000089501970895FC01918D828D981761F095
:100F6000828DDF01A80FB11D5D968C91928D9F5FE0
:100F70009F73928F90E008958FEF9FEF0895FC018B
:100F8000918D828D981731F0828DE80FF11D858D3E
:100F900090E008958FEF9FEF0895FC01918D228DD1
:100FA000892F90E0805C9F4F821B91098F73992756
:100FB000089585ED94E00E94CD0721E0892B09F486
:100FC00020E0822F0895FC01848DDF01A80FB11D60
:100FD000A35ABF4F2C91848D90E001968F7399276F
:100FE000848FA689B7892C93A089B1898C9180645C
:100FF0008C93938D848D981306C00288F389E02D1D
:1010000080818F7D80830895EF92FF920F931F93CD
:10101000CF93DF93EC0181E0888F9B8D8C8D9813AB
:1010200005C0E889F989808185FD24C0F62E0B8DE5
:1010300010E00F5F1F4F0F731127E02E8C8DE81209
:101040000CC00FB607FCFACFE889F989808185FFCB
:10105000F5CFCE010E94E307F1CF8B8DFE01E80FA3
:10106000F11DE35AFF4FF0820B8FEA89FB898081E3
:10107000806207C0EE89FF896083E889F9898081F1
:101080008064808381E090E0DF91CF911F910F9188
:10109000FF90EF900895CF93DF93EC01888D882324
:1010A000C9F0EA89FB89808185FD05C0A889B989D5
:1010B0008C9186FD0FC00FB607FCF5CF808185FFB0
:1010C000F2CFA889B9898C9185FFEDCFCE010E941E
:1010D000E307E7CFDF91CF91089580E090E0892B7F
:1010E00029F00E94D90781110C94000008958330E3
:1010F00081F028F4813099F08230A1F00895873092
:10110000A9F08830B9F08430D1F4809180008F7DCF
:1011100003C0809180008F7780938000089584B50C
:101120008F7702C084B58F7D84BD08958091B00013
:101130008F7703C08091B0008F7D8093B0000895B9
:101140000E94FB270F931F93CF93DF93EC010E9424
:101150007D0A688779878A879B87E881F98102847D
:10116000F385E02DCE01099597FF17C00E947D0AF7
:10117000088519852A853B85DC01CB01801B910BF5
:10118000A20BB30B0C811D812E813F81801791072B
:10119000A207B30710F38FEF9FEFDF91CF911F915D
:1011A0000F9108951F920F920FB60F9211242F9353
:1011B0003F934F935F936F937F938F939F93AF93DF
:1011C000BF93EF93FF9385ED94E00E94E307FF91B7
:1011D000EF91BF91AF919F918F917F916F915F91AF
:1011E0004F913F912F910F900FBE0F901F90189528
:1011F0001F920F920FB60F9211242F938F939F93EC
:10120000EF93FF93E091E504F091E6048081E09193
:10121000EB04F091EC0482FD12C090818091EE0409
:101220008F5F8F732091EF04821751F0E091EE04ED
:10123000F0E0EB52FB4F958F8093EE0401C080816C
:10124000FF91EF919F918F912F910F900FBE0F9073
:101250001F901895CF93DF93282F30E0F901E859BC
:10126000FF4F8491F901E254FF4FD491F901E65503
:10127000FF4FC491CC2391F081110E947708EC2F8D
:10128000F0E0EE0FFF1FE056FF4FA591B491EC91F7
:10129000ED2381E090E021F480E002C080E090E066
:1012A000DF91CF9108951F93CF93DF93282F30E0E4
:1012B000F901E859FF4F8491F901E254FF4FD491AD
:1012C000F901E655FF4FC491CC23C9F0162F8111C7
:1012D0000E947708EC2FF0E0EE0FFF1FEA56FF4F59
:1012E000A591B4918FB7F894111105C09C91ED2F81
:1012F000E095E92302C0EC91ED2BEC938FBFDF91D9
:10130000CF911F910895CF93DF9390E0FC01E254B9
:10131000FF4F2491FC01E655FF4F8491882361F132
:1013200090E0880F991FFC01E458FF4FC591D491BC
:10133000FC01EA56FF4FA591B491611109C09FB716
:10134000F8948881209582238883EC912E230BC00A
:10135000623061F49FB7F8943881822F809583239F
:101360008883EC912E2B2C939FBF06C08FB7F894E7
:10137000E8812E2B28838FBFDF91CF9108951F9393
:10138000CF93DF93182FEB0161E00E948309209730
:1013900011F460E004C0CF3FD10539F461E0812F42
:1013A000DF91CF911F910C945309E12FF0E0E859A0
:1013B000FF4FE491E330F9F048F4E130B9F0E23066
:1013C000A1F584B5806284BDC8BD34C0E730E9F0C2
:1013D000E83019F1E43049F5809180008062809313
:1013E0008000D0938B00C0938A0024C084B58068AD
:1013F00084BDC7BD1FC0809180008068809380003D
:10140000D0938900C093880015C08091B000806897
:101410008093B000C093B3000DC08091B000806293
:101420008093B000C093B40005C0C038D1050CF063
:10143000B5CFAFCFDF91CF911F9108953FB7F8940B
:101440008091CC029091CD02A091CE02B091CF02BA
:1014500026B5A89B05C02F3F19F00196A11DB11D0F
:101460003FBFBA2FA92F982F8827820F911DA11D4A
:10147000B11DBC01CD0142E0660F771F881F991F87
:101480004A95D1F708958F929F92AF92BF92CF92D3
:10149000DF92EF92FF926B017C010E941E0A4B01CA
:1014A0005C01C114D104E104F104F1F00E941E0AB0
:1014B000DC01CB0188199909AA09BB09883E934030
:1014C000A105B10570F321E0C21AD108E108F108C5
:1014D00088EE880E83E0981EA11CB11CC114D104B3
:1014E000E104F10419F7DDCFFF90EF90DF90CF908A
:1014F000BF90AF909F908F9008952FB7F894609110
:10150000C8027091C9028091CA029091CB022FBF8C
:1015100008951F920F920FB60F9211242F933F93AD
:101520008F939F93AF93BF938091C8029091C9020C
:10153000A091CA02B091CB023091C70223E0230FE1
:101540002D3720F40196A11DB11D05C026E8230FFB
:101550000296A11DB11D2093C7028093C8029093EB
:10156000C902A093CA02B093CB028091CC029091A1
:10157000CD02A091CE02B091CF020196A11DB11D66
:101580008093CC029093CD02A093CE02B093CF0271
:10159000BF91AF919F918F913F912F910F900FBE6F
:1015A0000F901F901895CF93FC01C48121E02093E8
:1015B0009F02C093C6021092A0021092C1028385BE
:1015C000682B8DEB95E00E94FA018091C102813277
:1015D00008F046C090919E029111FCCF92E090934A
:1015E0009E0291E090939D029FEF90939C02109237
:1015F0009B0280939A02A1EAB2E02AE732E0F90165
:101600009E2F921B981718F49D919193F9CF1092E9
:10161000790280917902CC0FC82BC0937902809116
:101620007802813061F4109278028091790280937F
:10163000BB008091BC0083FDF8CF85EC01C085EE36
:101640008093BC0080919E028230E1F380919C02E5
:101650008F3F31F080919C02803211F080919C028A
:101660001092A0021092C10210929F02CF91089591
:101670000F931F93CF938C01C62F0E94D30A6C2F18
:101680006460C8010E94D30A6C2F6B7FC8010E945E
:10169000D30A83EC90E00197F1F7CF911F910F915E
:1016A0000895FF920F931F93CF93DF931F92CDB7AF
:1016B000DEB78C01F62E962F907F692F642BC80120
:1016C00049830E94380B80E1F89EB00111244981C2
:1016D000642BC8010F90DF91CF911F910F91FF9064
:1016E0000C94380B41E00E94510B81E090E008958A
:1016F0000F931F93CF93DF93EC0110927702109218
:1017000076021092A0021092C10210929E0281E015
:1017100080939D021092780261E082E10E94530959
:1017200061E083E10E9453098091B9008E7F80932C
:10173000B9008091B9008D7F8093B90088E48093CF
:10174000B80085E48093BC001D828A85823010F049
:1017500098E09D83888762E370E080E090E00E94DB
:10176000430A6B85CE010E94D30A68EE73E080E0E5
:1017700090E00E94430A60E3CE010E94380B0BE424
:1017800016E4C8010197F1F760E3CE010E94380B1F
:10179000C8010197F1F760E3CE010E94380B83E5A1
:1017A00092E00197F1F760E2CE010E94380B6D8163
:1017B000606240E0CE010E94510B84E08E8340E0E5
:1017C0006CE0CE010E94510B40E061E0CE010E942E
:1017D000510B0BE31FE1C8010197F1F782E08F8302
:1017E00040E066E0CE010E94510B40E062E0CE0195
:1017F0000E94510BC8010197F1F7DF91CF911F9122
:101800000F910895809175028823A9F140910001FC
:1018100050910101609102017091030123ED32E0CA
:101820008091D3049091D4040E943B19811102C08D
:1018300080E008954091C2025091C3026091C402B9
:101840007091C502411551056105710591F023EDB7
:1018500032E08091D3049091D4040E943B198823F4
:1018600039F31092C2021092C3021092C402109275
:10187000C5021092750281E008958F929F92AF92F7
:10188000BF92EF92FF920F931F93CF934B015C0196
:10189000C42F8091000190910101A0910201B091AB
:1018A000030188159905AA05BB0501F10E94020CE8
:1018B000811102C080E020C083EDE82E82E0F82E86
:1018C00000E012E020E030E0B501A4018091D304F3
:1018D0009091D4040E94A718882361F3809200019C
:1018E00090920101A0920201B092030180917502D1
:1018F000C82BC093750281E0CF911F910F91FF908B
:10190000EF90BF90AF909F908F9008954F925F920D
:101910006F927F928F929F92AF92BF92CF92DF92FF
:10192000EF92FF920F931F93CF93DF93EC016A0125
:101930007B0128013901423051056105710510F420
:1019400080E073C089859A85AB85BC850196A11D11
:10195000B11D84179507A607B70790F38B889C885D
:10196000AD88BE888F89803129F4BB27AF2D9E2D8D
:101970008D2D09C0DB01CA0147E0B695A795979563
:1019800087954A95D1F7880E991EAA1EBB1E809195
:10199000000190910101A0910201B091030188160C
:1019A0009906AA06BB0679F48F898031A1F4DD245B
:1019B000EE24FF24C601880F991FFC01ED52FD4F54
:1019C0005182408219C040E0C501B4010E943D0C23
:1019D0008111EACFB5CFE894C7F8DD24EE24FF24C7
:1019E000C601880F991F880F991FFC01ED52FD4F0A
:1019F00040825182628273828091750281608093FD
:101A000075028A89823080F08D819E81AF81B88590
:101A1000880E991EAA1EBB1E8092C2029092C3021B
:101A2000A092C402B092C50281E0DF91CF911F91D4
:101A30000F91FF90EF90DF90CF90BF90AF909F906D
:101A40008F907F906F905F904F9008958F929F92AC
:101A5000AF92BF92CF92DF92EF92FF920F931F93BC
:101A6000CF93DF93FC0181859285A385B485019690
:101A7000A11DB11D84179507A607B70710F480E0D4
:101A80005CC083899489A589B689C789C03129F446
:101A9000852E962EA72EBB2409C04A015B01C7E004
:101AA000B694A79497948794CA95D1F7E9016A01EF
:101AB0007B018F01BC01CD01680D791D8A1D9B1D25
:101AC0008090000190900101A0900201B09003016C
:101AD000681579058A059B0599F4F8018789803195
:101AE000A9F4B701A601552766277727440F551F8C
:101AF000FA01ED52FD4F80819181A0E0B0E018C065
:101B000040E00E943D0C8111E8CFB9CFB701A6019A
:101B10004F77552766277727440F551F440F551FCA
:101B2000FA01ED52FD4F80819181A281B381BF7096
:101B300088839983AA83BB8381E0DF91CF911F9132
:101B40000F91FF90EF90DF90CF90BF90AF909F905C
:101B50008F9008954F925F926F927F92AF92BF9253
:101B6000CF92DF92EF92FF920F931F93CF93DF9369
:101B700000D000D0CDB7DEB78C0149835A836B8388
:101B80007C835901C12CD12C7601412C82E0582E46
:101B9000612C712C49815A816B817C819E012F5F60
:101BA0003F4FC8010E94260D882351F1D301C20185
:101BB000F801058404C0880F991FAA1FBB1F0A944F
:101BC000D2F7C80ED91EEA1EFB1E49815A816B81CD
:101BD0007C818789803129F088EF9FEFAFEFBFE0EC
:101BE00004C088EF9FEFA0E0B0E0481759076A07EC
:101BF0007B0780F2F501C082D182E282F38281E02C
:101C00000F900F900F900F90DF91CF911F910F9138
:101C1000FF90EF90DF90CF90BF90AF907F906F904C
:101C20005F904F900895CF93DF93EC018D818823CF
:101C3000A1F18C8187FF2DC06E857F858889998968
:101C400041E00E943D0C882341F1EA8980E2E89F4F
:101C5000F0011124DF01AD52BD4F1097F1F08D81DD
:101C6000823050F44B895C896D897E895C964D93F6
:101C70005D936D937C935F978F89988DA98DBA8DB5
:101C8000ED52FD4F938F828FB58BA48B8C818F7714
:101C90008C83DF91CF910C94020C80E0DF91CF9187
:101CA00008958F929F92AF92BF92CF92DF92EF9260
:101CB000FF920F931F93CF93DF93EC018D818111DE
:101CC00002C080E077C00B891C892D893E890417EA
:101CD000150726073707A8F36A017B01823029F42C
:101CE000CA86DB86EC86FD860DC0C114D104E104F2
:101CF000F10451F41E821F82188619861A861B86EB
:101D00001C861D8681E056C08A849B84AC84BD8479
:101D1000EB8DFC8D258530E0275F3F4FB501A40199
:101D20004150510961097109022E04C076956795E9
:101D3000579547950A94D2F7D701C6010197A10993
:101D4000B10904C0B695A795979587952A95D2F7BE
:101D500084179507A607B70720F089288A288B28BB
:101D600049F44F89588D698D7A8D4E835F836887DA
:101D7000798704C0841B950BA60BB70B4C015D0142
:101D80008E010A5F1F4F81149104A104B10409F46C
:101D9000A7CF4E815F816885798598018B8D9C8D59
:101DA0000E94260D91E0891A9108A108B1088111BD
:101DB000EACF87CFDF91CF911F910F91FF90EF90E6
:101DC000DF90CF90BF90AF909F908F9008952F920B
:101DD0003F924F925F926F927F928F929F92AF92BB
:101DE000BF92CF92DF92EF92FF920F931F93CF9308
:101DF000DF9300D000D0CDB7DEB78C015B011A01B4
:101E0000DC0115968C9115978130C9F414968C914C
:101E100081FF15C082FF1BC0F80143895489658981
:101E2000768982859385A485B58584179507A6074D
:101E3000B70769F0C8010E94510E811108C081E006
:101E400090E0F8019383828380E090E039C16101E2
:101E500083C0D8015B968D919C915C97FC01248195
:101E600021502A013B0139E07694679457944794B6
:101E70003A95D1F7722E74207A01F1E0FF22772093
:101E800009F476C080E092E08E199F0946018C1516
:101E90009D0508F44C01D8015B962D913C915C970F
:101EA00016968D919D910D90BC91A02D0297A10940
:101EB000B109F901058404C0880F991FAA1FBB1F2F
:101EC0000A94D2F74685578560897189840F951FDA
:101ED000A61FB71F9C01AD01270D311D411D511DCE
:101EE00029013A01811432E0930609F088C08091FB
:101EF000000190910101A0910201B09103018415AC
:101F00009505A605B70559F48FEF9FEFDC01809387
:101F1000000190930101A0930201B0930301950188
:101F2000B301A2018091D3049091D4040E943B1983
:101F3000882309F484CF9EEFB91AC818D908F8018C
:101F400082859385A485B585880D991DA11DB11D38
:101F500082879387A487B587D8011A964D915D91A2
:101F60006D917C911D97C114D10409F072CF87C087
:101F7000E114F10409F086CF16964D915D916D91B3
:101F80007C911997411551056105710559F45796D2
:101F90008D919D910D90BC91A02D0097A105B1054B
:101FA00041F521C09E012F5F3F4F0E94260D8823DF
:101FB00009F44BCF89819A81AB81BC81F801238DD3
:101FC000348DF9012789203129F048EF5FEF6FEF59
:101FD0007FE004C048EF5FEF60E070E08417950792
:101FE000A607B70730F0C8010E94A21481114ACF9A
:101FF00026CFF80186839783A087B18743CFE1146A
:10200000F10429F5D8011A964D915D916D917C915D
:102010001D9753968D919D910D90BC91A02D4817C1
:1020200059076A077B0798F00E94020C882309F47D
:1020300006CF40920001509201016092020170921D
:1020400003018091750281608093750208C041E0B0
:10205000C301B2010E943D0C882309F4F0CED501E2
:10206000F701ED52FD4FCF01880D991DE817F907D3
:1020700019F02D912193FACFA80CB91C5ECF53967D
:102080008D919D910D90BC91A02D84179507A60769
:10209000B70740F4F801438B548B658B768B8481B2
:1020A00080688483D80114968C9183FD02C0C1019D
:1020B00007C0C8010E94130E882309F4C0CEF7CFD1
:1020C0000F900F900F900F90DF91CF911F910F9174
:1020D000FF90EF90DF90CF90BF90AF909F908F9048
:1020E0007F906F905F904F903F902F900895CF9387
:1020F000DF931F92CDB7DEB7698341E050E0BE01A8
:102100006F5F7F4F0E94E70E0F90DF91CF91089590
:102110001F93CF93DF93EC0180E2689FF0011124BD
:102120009F012D523D4FD9011B969C91917129F031
:10213000842F827411F080E058C0142F6A8B809134
:10214000000190910101A0910201B09103018E87DD
:102150009F87A88BB98BED52FD4F4489558960E06C
:1021600070E0BA01552744274F8B588F698F7A8FBB
:10217000828D938DA0E0B0E0482B592B6A2B7B2BEE
:102180004F8B588F698F7A8FD9011B968C918871EC
:1021900051F4848D958DA68DB78D8B8B9C8BAD8BDB
:1021A000BE8B81E00DC0803131F69E012D5E3F4F28
:1021B0008B8D9C8D0E94AA0D882309F4BCCF84E0EE
:1021C0008D83812F8F708C831E821F8218861986C3
:1021D0001A861B861C861D8616FF06C0CE01DF915F
:1021E000CF911F910C944E1E81E0DF91CF911F91F2
:1021F00008958F929F92AF92BF92CF92DF92EF920B
:10220000FF92CF9310927F0510927D0510927A0570
:1022100010927905809378050E947D0A6B017C01FC
:1022200061E0809178050E94830961E080917805E2
:102230000E945309CFB7F8948091D002811127C032
:10224000E4EBF0E08491E8ECF0E09491E82FF0E02A
:10225000EE0FFF1FE458FF4FA591B491EC91E923D5
:1022600021F461E08AE00E94530961E08AE00E9463
:1022700083098CB580618CBD8CB580648CBD61E0B8
:102280008DE00E94830961E08BE00E9483098091C8
:10229000D0028F5F8093D002CFBF82E5809372051A
:1022A0001092730580917205909173050E942C180D
:1022B000CAE08FEF0E94ED17C150D9F784E795E08F
:1022C0000E942F1820E030E0A90160E084E795E04B
:1022D0000E944518C82F80937E05813049F00E94E6
:1022E0007D0A6C197D09613D774060F381E054C03F
:1022F0002AEA31E040E050E068E084E795E00E949F
:10230000451882FF03C0C0937F050EC0C4E00E9441
:10231000F41780937E05C150D1F78A3A11F082E01C
:102320003BC082E080937F0580917F05823021F061
:10233000812C912C540105C0812C912CA12C30E4CE
:10234000B32E20E030E0A90167E384E795E00E9426
:102350004518A501940169E284E795E00E944518BB
:1023600080937E05882349F00E947D0A6C197D09BF
:10237000613D774030F388E00FC080917F05823067
:1023800001F520E030E0A9016AE384E795E00E94CE
:102390004518882341F086E08093790584E795E02D
:1023A0000E94E2178FC00E94F417807C803C19F4D1
:1023B00083E080937F050E94F4170E94F4170E9427
:1023C000F41784E795E00E94E21780E58093720598
:1023D0001092730581E00E94DC1C882329F0809113
:1023E000A305882341F06EC080E00E94DC1C882396
:1023F00009F469C0F4CF80919705803109F582E036
:102400008093A3051092B5051092B6051092B705FA
:102410001092B8058091980590919905A0E0B0E0E0
:1024200025E0880F991FAA1FBB1F2A95D1F780931B
:10243000B1059093B205A093B305B093B4051EC047
:10244000803209F03FC083E08093A30540919A0554
:1024500050919B0560919C0570919D054093B50539
:102460005093B6056093B7057093B80521EB35E03E
:1024700080E895E00E94AA0D882321F180E895E08C
:102480009093BA058093B90581E08093A2051092DC
:10249000A4051092A5051092A6051092A70510920A
:1024A000A8051092A9051092AA051092AB051092EA
:1024B000AC051092AD051092AE051092AF051092CA
:1024C000B00501C080E0CF91FF90EF90DF90CF90FA
:1024D000BF90AF909F908F900895CF92DF92EF9230
:1024E000FF921F93CF93DF938091D3068093C9050A
:1024F0008091C9050E942A09892BD1F3C0E0D0E060
:102500000E941E0A6B017C018091C9050E942A0964
:102510000197C9F40E941E0AAB01BC014C195D0968
:102520006E097F098091CA059091CB05092E000C98
:10253000AA0BBB0B84179507A607B70728F7C0930C
:10254000D20610E001C011E00E941E0A112359F0CA
:10255000FE01EE0FFF1FE45BF94FCB018C199D09C3
:102560009183808321960E941E0A6B017C018091D9
:10257000C9050E942A09892BD1F30E941E0A112342
:1025800061F0FE01EE0FFF1FE45BF94FCB018C19E8
:102590009D09918380832196B3CFDF91CF911F91C5
:1025A000FF90EF90DF90CF9008958091DB068D3300
:1025B000A9F018F48C3391F014C08E3379F086347E
:1025C00081F487E48093DB060E94C91A60ED77E00E
:1025D00080E090E00E94430A84E101C086E4809399
:1025E000DB060E94C91A68EC70E080E090E00C9471
:1025F000430ABC01009791F0FC0101900020E9F72B
:102600003197AF01481B590BE091F506F091F606A2
:102610000280F381E02D85EF96E0099480E090E060
:1026200008958F929F92AF92BF920F931F93CF9373
:10263000DF93CDB7DEB7A1970FB6F894DEBF0FBE1C
:10264000CDBF19A2423008F44AE08E010F5D1F4F42
:10265000842E912CA12CB12CA50194010E94C82597
:10266000E62FB901CA0101501109EA3014F4E05D06
:1026700001C0E95CD801EC93232B242B252B61F7B7
:10268000C8010E94F912A1960FB6F894DEBF0FBEE2
:10269000CDBFDF91CF911F910F91BF90AF909F90D1
:1026A0008F900895CF92DF92EF92FF921F93CF9376
:1026B000DF93CDB7DEB76B970FB6F894DEBF0FBED2
:1026C000CDBF7C016FEA77E1FC01808191810E949E
:1026D000BD1B882339F064E677E1F70180819181A1
:1026E0000E94BD1BF7016081718143E1CE0101961B
:1026F0000E94DB1EBE016F5F7F4F85EF96E00E9458
:10270000AA0585EF96E00E94F7198823B1F110E041
:102710008091D206181768F5E12FF0E0EE0FFF1F49
:10272000E45BF94FC080D1800D2C000CEE08FF084F
:10273000F7FE14C0E091F506F091F6060190F081E5
:10274000E02D6DE285EF96E0099566277727CB01AE
:102750006C197D098E099F094AE003C04AE0C70150
:10276000B6010E94111380E991E00E94F9121F5FE7
:10277000CFCF85EF96E00E947D026B960FB6F8945E
:10278000DEBF0FBECDBFDF91CF911F91FF90EF90C5
:10279000DF90CF9008958091DB06883249F1A0F454
:1027A000863179F120F4843149F585E128C08F31F3
:1027B000D9F020F48E3111F58FE121C08032B1F0D3
:1027C0008332E1F48EE11BC08C33C1F0B8F4823364
:1027D00089F020F4893291F488E211C0833361F0EA
:1027E000843361F482E30BC080E209C083E207C056
:1027F00089E205C083E303C084E301C084E18093E0
:10280000DB060E94C91A68EC70E080E090E00C944E
:10281000430A0F931F93CF93DF93EC018881998133
:10282000009729F02A813B812617370788F48B010E
:102830006F5F7F4F0E943127009761F099838883F3
:102840001B830A832C813D81232B11F4FC01108210
:1028500081E001C080E0DF91CF911F910F91089539
:10286000EF92FF920F931F93CF93DF93EC017B01C5
:102870008A01BA010E9409142881398181110DC091
:102880002115310519F0C9010E9499261982188273
:102890001D821C821B821A8206C01D830C83B70115
:1028A000C9010E942128CE01DF91CF911F910F9184
:1028B000FF90EF900895CF93DF93EC01FB01861713
:1028C0009707B1F0608171816115710529F044812C
:1028D00055810E9430140CC088819981009711F0B5
:1028E0000E949926198218821D821C821B821A82DC
:1028F000CE01DF91CF910895FC01808191810C94EC
:102900009926FC0111821082138212821582148290
:102910006115710551F0FB0101900020E9F7319735
:10292000AF01461B570B0C9430140895CF93DF93DF
:10293000EC010E94130E882311F01D8281E0DF91CB
:10294000CF9108953F924F925F926F927F928F92B4
:102950009F92AF92BF92CF92DF92EF92FF920F932E
:102960001F93CF93DF93CDB7DEB72C970FB6F894B4
:10297000DEBF0FBECDBF5C01DC015B968D909C90ED
:102980005C971696CD90DD90ED90FC901997C11450
:10299000D104E104F10439F0BFEFCB1ADB0AEB0AF2
:1029A000FB0A312C07C0F401C080D180E280F380A3
:1029B00033243394F40181859285A385B4859C01E9
:1029C000AD012F5F3F4F4F4F5F4F29873A874B87AE
:1029D0005C87260137011D821E821F821886F40142
:1029E00081859285A385B4852D813E814F8158854F
:1029F000281739074A075B0708F063C089859A855D
:102A0000AB85BC858C159D05AE05BF0550F482E0F5
:102A1000C82ED12CE12CF12C92E0492E512C612CA6
:102A2000712C9E012F5F3F4FB701A601C4010E9488
:102A3000260D882309F445C089819A81AB81BC8128
:102A4000892B8A2B8B2B41F0260137019FEF491AE6
:102A5000590A690A790A05C0C414D504E604F704C2
:102A600091F02D813E814F8158852F5F3F4F4F4F11
:102A70005F4F2D833E834F8358873FEFC31AD30A9E
:102A8000E30AF30AACCF0FEF1FEF2FEF3FE0B301E4
:102A9000A201C4010E94860C882399F0D5011696E4
:102AA0004D915D916D917C9119974115510561058D
:102AB000710549F093018201C4010E94860C8111C5
:102AC00002C080E02AC0D50116964D925D926D92AB
:102AD0007C921997332051F0D301C2010196A11DB8
:102AE000B11DF40180839183A283B383F5018789AB
:102AF000908DA18DB28D892B8A2B8B2B69F4D501FA
:102B000057964D925D926D927C925A9714968C9145
:102B10001497806814968C9381E02C960FB6F894E5
:102B2000DEBF0FBECDBFDF91CF911F910F91FF9000
:102B3000EF90DF90CF90BF90AF909F908F907F905D
:102B40006F905F904F903F9008954F925F926F9279
:102B50007F929F92AF92BF92CF92DF92EF92FF92BD
:102B60000F931F93CF93DF93CDB7DEB72B970FB69D
:102B7000F894DEBF0FBECDBF7C01DC011596AC9092
:102B8000A1108AC1FE0131966F0190E28BE08E0F99
:102B900091938E13FDCFDA0130E087E09D91992368
:102BA00039F19E3219F0E6E8F0E00AC08A3009F403
:102BB00074C138E08AE0F2CF3196491709F46DC14B
:102BC00044914111F9CF831708F467C14FED490FC4
:102BD0004E3508F062C141E0430FF601E30FF11DED
:102BE0003FE9390F3A3108F490529083342FD6CF11
:102BF0008981803209F451C1B22E8B01DB015B96D1
:102C00008D919C915C97F701948F838F16961D92FE
:102C10001D921D921C921997FB0112861386148631
:102C20001586712CF80182859385A485B585438925
:102C300054896589768984179507A607B70708F030
:102C400061C025E0B695A795979587952A95D1F708
:102C5000F82FFF706F2ED80115968C91823008F4F2
:102C60001CC1C8010E94C40297FD17C1F8018285EA
:102C70009385A485B5854F96A11DB11D8287938745
:102C8000A487B587F0E26F9EC0011124BC016D528C
:102C90007D4F6115710509F400C1DB012C912223E0
:102CA00019F0253EC1F427C071100EC0F701628AE9
:102CB0004091000150910101609102017091030166
:102CC00046875787608B718BFC01ED52FD4F8081E9
:102CD000811113C015C04BE050E0C6010E940028CE
:102CE000892B09F09FCF8B2D8073803309F4D5C0D9
:102CF0004B2D662DCCC07720C9F27724739492CFE8
:102D0000772473948B2D8271823109F0C6C07720AD
:102D1000D1F0D7011E966D917D918D919C91519727
:102D200041E00E943D0C882309F4B7C0F701628995
:102D3000F0E26F9FB00111246D527D4F6115710556
:102D400009F079C0AAC0D80115968C91823009F497
:102D5000A4C0C8010E94A214882309F49EC0D8010F
:102D60005B96ED91FC915C9716964D905D906D9001
:102D70007C901997B2E04B1A5108610871080584DC
:102D800004C0440C551C661C771C0A94D2F7868537
:102D90009785A089B189480E591E6A1E7B1E9480B2
:102DA000E1E04E1A510861087108992009F10E946A
:102DB000020C882309F471C0E3EDF2E0119224E0E3
:102DC000E33DF207D9F7D301C201890D911DA11D81
:102DD000B11D8093000190930101A0930201B09373
:102DE0000301809175028160809375029A94DDCF12
:102DF000D8015B96ED91FC915C9780E092E0A0E0B9
:102E0000B0E0058404C0880F991FAA1FBB1F0A9455
:102E1000D2F7F8014389548965897689840F951F13
:102E2000A61FB71F838B948BA58BB68BD7015296A9
:102E30001C9263ED72E080E2FB0111928A95E9F742
:102E40008BE0F601DB0101900D928A95E1F781E2BA
:102E500098E2DB0151969C938E93509720E038E0E6
:102E60001F963C932E931E9753969C938E93529746
:102E700059969C938E93589757963C932E935697BA
:102E80000E94020C882349F04B2DF7016289C7018B
:102E90000E948810A82E01C0A12C8A2D2B960FB657
:102EA000F894DEBF0FBECDBFDF91CF911F910F9180
:102EB000FF90EF90DF90CF90BF90AF909F907F906A
:102EC0006F905F904F900895CF93DF93CDB7DEB7AB
:102ED0006D970FB6F894DEBF0FBECDBF4423A9F1A6
:102EE000AB01BC011C821B8288E291E09A8389833A
:102EF0001E8222E0CE0101960E94A515811102C01A
:102F000090E01EC0CE0101960E944E1E8823C1F3A0
:102F10006F85788989899A8941E00E943D0C8823D0
:102F200079F3EB8980E2E89FF0011124ED52FD4F27
:102F3000309731F385EE80831E820E94020C982F19
:102F400081E0911103C080E001C081E06D960FB671
:102F5000F894DEBF0FBECDBFDF91CF9108951F93D0
:102F6000CF93DF93CDB7DEB76D970FB6F894DEBF82
:102F70000FBECDBFAB011C821B8228E231E03A8339
:102F800029831E8221E0BC01CE0101960E94A51575
:102F900011E0811102C010E004C0CE0101960E9430
:102FA0009614812F6D960FB6F894DEBF0FBECDBF7D
:102FB000DF91CF911F9108958FB7F8948091D2023D
:102FC0008FBF089561E0FC0184810E9453098091C4
:102FD000D10281111092D10208958EBD00000DB46E
:102FE00007FEFDCF8EB508958FEF0C94ED170F936C
:102FF0001F93CF93DF93EB010E947D0A8B010E9408
:10300000F4178F3F49F00E947D0A601B710B6C170B
:103010007D07A8F380E001C081E0DF91CF911F918F
:103020000F910895CF93DF93EC018E81882389F06F
:103030008F8198859C012F5F3F4F38872F83823087
:10304000924018F40E94F417F3CFCE010E94E217C9
:103050001E82DF91CF9108958CBD9DBD0895CF93C1
:10306000DF93EC018091D102811109C081E080934E
:10307000D10280917205909173050E942C1860E036
:103080008C81DF91CF910C945309CF92DF92FF9204
:103090000F931F93CF93DF9300D000D0CDB7DEB74F
:1030A0006C01F62E29833A834B835C830E941218AD
:1030B000C6010E942F186CE271E0C6010E94F7174A
:1030C0008F2D80640E94ED1708E110E05C814B8138
:1030D0003A812981DA01C901002E04C0B695A7956D
:1030E000979587950A94D2F729833A834B835C831B
:1030F0000E94ED170850110929813A814B815C81AA
:10310000083F8FEF180731F7FF2029F0E8E0FE12A3
:1031100004C087E803C085E901C08FEF0E94ED1766
:1031200010E00E94F417F601828787FF04C01F3F5A
:1031300011F01F5FF6CF0F900F900F900F90DF915F
:10314000CF911F910F91FF90DF90CF900895AF9294
:10315000BF92CF92DF92EF92FF920F931F93CF9384
:10316000DF93EC016901C801820F931F8130924007
:1031700008F070C08E81882371F088819981AA81BE
:10318000BB81481759076A077B0729F48F81988507
:10319000C816D906B0F5488359836A837B838B852B
:1031A000833039F089E0440F551F661F771F8A95D9
:1031B000D1F79A01AB0161E1CE010E944518882345
:1031C00019F083E08D8346C00E947D0A5B010E9456
:1031D000F4178A878F3F49F40E947D0A6A197B0998
:1031E0006D327140A0F38FE003C08E3F31F08DE06F
:1031F0008D83CE010E94E2172DC018861F8281E0C8
:103200008E838F8198858C159D0540F40E94F4175C
:103210008F819885019698878F83F3CF6701E00EA1
:10322000F11ECE14DF0431F00E94F417F6018193F1
:103230006F01F7CF8F819885080F191F18870F83AB
:103240008985882319F00115124048F0CE010E94AB
:10325000121805C0CE010E94E21780E001C081E093
:10326000DF91CF911F910F91FF90EF90DF90CF9062
:10327000BF90AF900895EF92FF920F931F93CF935B
:10328000DF93EC017901411551056105710511F4D8
:1032900082E13CC08B85833039F089E0440F551FB3
:1032A000661F771F8A95D1F79A01AB0168E1CE01BD
:1032B0000E944518882311F084E028C08EEF0E94F8
:1032C000ED1787018EEFF81AF80181918F010E94A6
:1032D000ED170E151F05C1F78FEF0E94ED178FEF49
:1032E0000E94ED170E94F4178A878F71853031F0A4
:1032F00081E18D83CE010E94E21709C068E572E08A
:10330000CE010E94F717811107C085E18D83CE01A0
:103310000E94E21780E013C020E030E0A9016DE0D8
:10332000CE010E944518811104C00E94F417882321
:1033300011F084E1EBCFCE010E94E21781E0DF9132
:10334000CF911F910F91FF90EF900895FC01DB0149
:1033500012968D919C9113979383828388E291E0DA
:103360009183808314968C911497848315968C9105
:103370001597858316964D915D916D917C91199766
:1033800046835783608771871A964D915D916D9141
:103390007C911D9742875387648775871E964D9150
:1033A0005D916D917C91519746875787608B718BAA
:1033B00052968C915297828B53964D915D916D915F
:1033C0007C915697438B548B658B768B57964D919A
:1033D0005D916D917C915A97478B508F618F728F61
:1033E0005B968D919C915C97948F838F0895DC01FF
:1033F0005996ED91FC915A97309721F081E0958193
:10340000911101C080E00895CF93DF93CDB7DEB76F
:1034100028970FB6F894DEBF0FBECDBF28E0EAE0D4
:10342000F1E0DE01119601900D922A95E1F7FC0181
:103430002085261710F46FEF620FFE013196E60F1C
:10344000F11DE60FF11D6081606840E028960FB61F
:10345000F894DEBF0FBECDBFDF91CF910C94510B1E
:103460008F929F92BF92CF92DF92EF92FF920F9333
:103470001F93CF93DF93CDB7DEB76B970FB6F8945A
:10348000DEBF0FBECDBFFC019091D20680819817A0
:1034900011F010E06BC0FB016081718141E0CE0151
:1034A00001960E94DB1EBE016F5F7F4F85EF96E0A5
:1034B0000E94AA0585EF96E00E94F719882349F338
:1034C000B12C84E6E82EF12C9CE9C92EDD24DA9497
:1034D0008091D206B81608F042C065EF76E0CE01C2
:1034E00001960E940B1E89819A81009719F00E9413
:1034F000272503C060E070E0CB018B01CE0101966F
:103500000E947C14EB2DF0E0EE0FFF1FE45BF94FFF
:1035100020813181E091CC05F0E0C901B7010E9422
:10352000B4256E9F40016F9F900C7E9F900C1124DC
:10353000820E931EC901B6010E94B4256E9FC00180
:103540006F9F900D7E9F900D1124280F391F021739
:1035500013073CF08016910624F0B394B9CF11E024
:1035600001C010E085EF96E00E947D02812F6B96EE
:103570000FB6F894DEBF0FBECDBFDF91CF911F9184
:103580000F91FF90EF90DF90CF90BF909F908F9022
:1035900008950F931F93CF93DF93CDB7DEB76B974B
:1035A0000FB6F894DEBF0FBECDBF8091DB06883228
:1035B00009F459C010F5863109F449C058F4843132
:1035C000F1F108F040C08A3009F06DC041E063E9D4
:1035D00071E05CC08F31F9F138F48E3109F063C0CD
:1035E00041E06FE971E052C08032C9F1833209F0E5
:1035F0005AC041E068EA71E049C08C3309F43FC029
:1036000098F48233A1F138F4893209F04CC041E0DA
:103610006EEA71E03BC0833371F1843309F043C03B
:1036200041E067EB71E032C08E3349F140F18634FE
:1036300051F18734C1F541E060EC71E027C041E011
:1036400066E971E023C041E069E971E01FC041E033
:103650006CE971E01BC041E062EA71E017C041E033
:1036600065EA71E013C041E06BEA71E00FC041E030
:1036700061EB71E00BC041E064EB71E007C041E039
:103680006AEB71E003C041E06DEB71E0CE010196A1
:103690000E94DB1EBE016F5F7F4F8091DC06909120
:1036A000DD060E94AA050091DC061091DD06C80126
:1036B0000E94F719882309F44FC0D801ED91FC91BD
:1036C0000084F185E02DC8010995892B09F444C0D7
:1036D00060E08091E8069091E9060E94041A6091EA
:1036E000DC067091DD06CE0101960E940B1E8091D2
:1036F000E8069091E906DC01ED91FC914D815E8137
:1037000069817A810280F381E02D0995CE010196CD
:103710000E947C1461E08091E8069091E9060E9485
:10372000041A6091DC067091DD06CE0101960E94BC
:103730000B1E8091E8069091E906DC01ED91FC9169
:103740004D815E8169817A810280F381E02D099546
:10375000CE0101960E947C148091DC069091DD06DA
:103760000E947D026B960FB6F894DEBF0FBECDBFF0
:10377000DF91CF911F910F9108956F927F928F9259
:103780009F92AF92BF92CF92DF92EF92FF920F93F0
:103790001F93CF93DF93CDB7DEB7C754D1090FB6D0
:1037A000F894DEBF0FBECDBF6C015B0119A218A259
:1037B00088E291E09F8F8E8F1BA21C821B829A83CE
:1037C00089831E82812C912C7E018EE1E80EF11CF2
:1037D0000EE915E0772473949401F601E80DF91DC4
:1037E00080818F3211F42F5F3F4FFE01FB9680E006
:1037F00090E0D601A20FB31F4C914F3249F0442301
:1038000039F001962F5F3F4F41938C30910589F736
:10381000EBE3F0E0EC0FFD1FE80FF91F1082F6015B
:10382000E20FF31F80818F3211F42F5F3F4F490168
:10383000F601E20FF31F662463948081811101C0B9
:10384000612C20E030E0462D4725BE01655C7F4FAE
:10385000C801F5010995811109C0F5E00E391F076E
:1038600019F0C8010E94961480E029C06620C1F0BA
:1038700021E0AE01455C5F4FB801C7010E94A5156C
:10388000682E85E00E391807A1F0C8010E94961431
:10389000662051F3902F812F8701E92EF82E9CCFBF
:1038A000E5E00E391E0719F0C8010E94961481E068
:1038B00006C06620C9F28E010F5F1F4FEBCFC95BB8
:1038C000DF4F0FB6F894DEBF0FBECDBFDF91CF91B3
:1038D0001F910F91FF90EF90DF90CF90BF90AF902E
:1038E0009F908F907F906F9008950F931F93CF9329
:1038F000DF93CDB7DEB76B970FB6F894DEBF0FBE80
:10390000CDBF8C016FEA77E1FC01848595850E942B
:10391000BD1B882309F445C0F8016485758541E025
:10392000CE0101960E94DB1EBE016F5F7F4F85EFC7
:1039300096E00E94AA0585EF96E00E94F719882379
:1039400069F165EF76E0CE0101960E940B1E898138
:103950009A81009719F00E94272501C060E0F801C4
:10396000628BCE0101960E947C1465EF76E0CE0159
:1039700001960E940B1E89819A81009719F00E947E
:10398000272501C060E0F801638BCE0101960E94FB
:103990007C1485EF96E00E947D0203C0F801128A34
:1039A000138A6B960FB6F894DEBF0FBECDBFDF91C2
:1039B000CF911F910F9108958F929F92AF92BF92D6
:1039C000CF92DF92EF92FF92CF93DF93C82F84E7DD
:1039D00095E09093D4048093D304CC2369F1C5304F
:1039E00010F080E00DC140E060E070E0CB010E948B
:1039F0003D0C8823B1F320E1C29FC00111248D53F7
:103A00009D4FFC01E254FE4F20812F7751F73C96E9
:103A10004081518162817381443651056105710590
:103A200000F33497C080D180E280F380C114D104C8
:103A3000E104F10421F4D5CFC12CD12C760140E072
:103A4000C701B6010E943D0C882359F28091DE0225
:103A50009091DF028115924021F6A091E302AA2302
:103A600009F4BFCF6091E1027091E2026115710526
:103A700009F4B7CF2091E002222309F4B2CFA0933A
:103A800092052093840580E030E0E1E0F0E0C82F6B
:103A9000AF01082E02C0440F551F0A94E2F7241705
:103AA000350741F0982F8F5F983089F789E0809330
:103AB0008D0597CF80938D052091E9023091EA0220
:103AC0002115310519F040E050E008C02091F702BF
:103AD0003091F8024091F9025091FA022093850545
:103AE000309386054093870550938805460157011A
:103AF000860E971EA11CB11C80929305909294058E
:103B0000A0929505B0929605E091E402F091E5024D
:103B1000F0939905E0939805B0E00E946325860E26
:103B2000971EA81EB91E80929A0590929B05A0929E
:103B30009C05B0929D0585E0EE0FFF1F8A95E1F789
:103B4000E150FE4FEF2FFF27E6958E0E9F1EA11C22
:103B5000B11C80928E0590928F05A0929005B09234
:103B600091052091E6023091E7022115310521F0FF
:103B7000A90160E070E008C04091F3025091F402A6
:103B80006091F5027091F602D701C6018819990972
:103B9000AA09BB09840F951FA61FB71F04C0B695BD
:103BA000A79597958795CA95D2F7809389059093A5
:103BB0008A05A0938B05B0938C05853F2FE0920773
:103BC000A105B10510F48CE018C0853F9F4FA105F9
:103BD000B10510F480E111C08091FF0290910003C3
:103BE000A0910103B091020380939A0590939B05E5
:103BF000A0939C05B0939D0580E28093970581E09A
:103C0000DF91CF91FF90EF90DF90CF90BF90AF907A
:103C10009F908F900895CF92DF92EF92FF920F9333
:103C20001F93CF93DF9300D0CDB7DEB78C016B012C
:103C300062E971E00E948114C6010E94A20897FD0A
:103C400021C08A309105F1F089831A82F801E4805D
:103C5000F580FFEFEF1AFF0AB701C8010E940914AF
:103C6000882351F3F8012081318184819581BE013F
:103C70006F5F7F4F820F931F0E942128F801F5820A
:103C8000E482DACFC8010F900F90DF91CF911F919E
:103C90000F91FF90EF90DF90CF9008958F929F92B9
:103CA000AF92BF92CF92DF92EF92FF920F931F934A
:103CB000CF93DF9300D000D0CDB7DEB7FC01858174
:103CC000813079F5948191FF2CC0438954896589AD
:103CD0007689452B462B472B09F45CC07F0140E0D9
:103CE00050E0BA01CF010E94510E8823D1F0F701B4
:103CF0008788908CA18CB28CC38CD48C82E090E0AD
:103D0000A0E0B0E0F60180839183A283B3839E019B
:103D10002F5F3F4FB501A401C6010E94260D8111FE
:103D200002C080E037C000E010E09801B501A401B6
:103D3000C6010E94860C8823A1F389809A80AB80FB
:103D4000BC80F6018789803129F088EF9FEFAFEFC3
:103D5000BFE004C088EF9FEFA0E0B0E088169906AE
:103D6000AA06BB06A0F2F701178A108E118E128EDA
:103D7000138A148A158A168A848180688483C7010D
:103D80000E94130E882369F240E050E0BA01C70197
:103D90000E94510E0F900F900F900F90DF91CF91D6
:103DA0001F910F91FF90EF90DF90CF90BF90AF9059
:103DB0009F908F9008952F923F924F925F926F92B3
:103DC0007F928F929F92AF92BF92CF92DF92EF92AB
:103DD000FF920F931F93CF93DF93CDB7DEB7C756F4
:103DE000D1090FB6F894DEBF0FBECDBF5C014B0109
:103DF000A6964FAFA6973E018EE1680E711C6EE944
:103E000075E0C3010E94A6191C821B8288E291E022
:103E10009A8389831E827401FE0131966F0123010A
:103E20001F016FE270E0C7010E9416280097F1F1B0
:103E3000F70120812F3221F4FFEFEF1AFF0AF1CFB3
:103E40008E198D3008F08CE0082F10E0A801B70122
:103E5000CE01885A9F4F0E942828E8E5F0E0EC0F39
:103E6000FD1FE00FF11F1082C6010E94961421E091
:103E7000AE01485A5F4FB201C6010E94A5158111DB
:103E80000AC01EAE1DAE88E291E09CAF8BAF2196BA
:103E90001FAE219717C0E00EF11EC2010E949614BA
:103EA000942D852D2601C92ED82EBBCFC701881988
:103EB0009909A8969FAF8EAFA897B201CE01CB9675
:103EC0000E94A619A896EEADFFADA8978E0E9F1E74
:103ED000F4018081811109C0BE01655C7F4FC10181
:103EE0000E94A61947EE51E04BC019A218A288E221
:103EF00091E09F8F8E8F1BA221968FAD219781110C
:103F000013C0F5011382128288EE93E0A0E0B0E0C6
:103F100084839583A683B78388E591E0918380832A
:103F2000128E118E148630C08250A6962FADA697A1
:103F3000A401823040F46EE975E0C3010E94A5152A
:103F400081110DC0DECFBE01655C7F4FC3010E94B1
:103F5000A5158823B1F2CE01CB960E949614A696A1
:103F60008FADA697867039F049A95AA96BA97CA98B
:103F7000C3010E94510EB301C1010E94A619A40100
:103F8000B101C5010E948F02C501C959DF4F0FB6AB
:103F9000F894DEBF0FBECDBFDF91CF911F910F917F
:103FA000FF90EF90DF90CF90BF90AF909F908F9059
:103FB0007F906F905F904F903F902F9008958DEC81
:103FC00095E00E946A028DEE95E00E946A028DE003
:103FD00096E00E946A0286E491E090932E06809318
:103FE0002D0680917302909174028D52964071F467
:103FF000E0914006F09141069081809142068095C3
:104000008923808310927402109273020895789429
:1040100084B5826084BD84B5816084BD85B58260CD
:1040200085BD85B5816085BD80916E00816080937E
:104030006E001092810080918100826080938100E7
:1040400080918100816080938100809180008160F7
:10405000809380008091B10084608093B100809152
:10406000B00081608093B00080917A00846080937A
:104070007A0080917A00826080937A0080917A0041
:10408000816080937A0080917A00806880937A00C2
:104090001092C10061E08091EA060E94530980916C
:1040A000EB060E94F910882309F4F8C0E091E504BA
:1040B000F091E60482E08083E091E104F091E20473
:1040C0001082E091E304F091E4048FEC808310927D
:1040D000ED04E091E904F091EA0486E08083E09148
:1040E000E704F091E804808180618083E091E70437
:1040F000F091E804808188608083E091E704F0918A
:10410000E804808180688083E091E704F091E8040E
:1041100080818F7D8083109248061092470610920E
:10412000460610924506109244061092430685E614
:1041300090E090934A068093490690913906963113
:1041400008F057C021E230E0309344062093430644
:1041500023E630E0309346062093450622E430E023
:10416000309348062093470620916800983050F01D
:1041700031E09E3008F430E081E001C0880F3A95CC
:10418000EAF701C084E0822B80936800983038F011
:104190009E3040F0963148F020E030E008C02DE637
:1041A00030E005C02BE630E002C02CE630E0309372
:1041B000410620934006983030F481E001C0880F1A
:1041C0009A95EAF70EC0292F30E09E3018F4285057
:1041D000310902C02E50310981E001C0880F2A95B3
:1041E000EAF7809342068091490690914A0601972A
:1041F000F1F78091470690914806892B49F1E091AB
:104200007302F091740286E0ED32F80709F13097FD
:1042100039F0A389B4899C918589809589238C93F1
:1042200080914B068E7F80934B0610927202109203
:1042300071028DE296E09093740280937302E09194
:104240004006F0914106908180914206892B80833F
:104250008091E8069091E9060E94780B0E94C91AA5
:104260008091E8069091E90628E0FC01238760E050
:104270000E94D30A6091D9067091DA068091DE0619
:104280000E94BF098DE096E00E94751C8DEE95E0BE
:104290000E94751C8DEC95E00E94751CD1E00AEF20
:1042A00010E035E0E32EF12C4AE0A42E99249394FB
:1042B00082E3C82E96E1B92EC4E128E2D22E809185
:1042C000D3060E942A0921E0892B09F420E02093DB
:1042D000D406222309F4A3C18091E706882361F064
:1042E0000E947D0A6093DF067093E0068093E106EA
:1042F0009093E2061092E7060E947D0A6093E3061F
:104300007093E4068093E5069093E6062091DF061D
:104310003091E006621B730B69397A430CF4B4C028
:104320006090D9067090DA0677FC0FC0B3018091D7
:10433000DE060E94BF096AE070E080E090E00E9423
:10434000430A81E0681A7108EFCF60E08091EA06C5
:104350000E94530985ED96E00E944306811177C0C3
:1043600087ED96E00E944306811171C08091F406AA
:10437000882361F00E947D0A6093EC067093ED063D
:104380008093EE069093EF061092F4060E947D0A49
:104390006093F0067093F1068093F2069093F30613
:1043A0002091EC063091ED06621B730B693E734061
:1043B0003CF08091EB060E94F9109092F406D6CF63
:1043C0008091D3060E942A0921E0892B09F420E07C
:1043D0002093D406211114C00E946D128DE096E046
:1043E0000E944E078DEE95E00E944E078DEC95E001
:1043F0000E944E0768EC70E080E090E00E94430A63
:104400008091E706882361F00E947D0A6093DF06B1
:104410007093E0068093E1069093E2061092E7061F
:104420000E947D0A6093E3067093E4068093E5069C
:104430009093E6062091DF063091E006621B730B35
:10444000613375470CF486CFA092DB0683CFD093FF
:10445000E70661E08091EA060E9453098091E80630
:104460009091E9060E94780B0E94C91A6091D906C2
:104470007091DA068091DE060E94BF0968EC70E058
:1044800080E090E00E94430A87ED96E00E94430698
:10449000882321F0D093E7060E94CB1385ED96E0A8
:1044A0000E944306882309F47CC0D093E7068091DC
:1044B000DB068832E1F1D0F4863109F46AC040F4B9
:1044C000843169F108F05DC08A3009F45DC05FC0D5
:1044D0008F3139F128F48E3109F059C08CE322C0B4
:1044E000803219F1833209F44FC051C08C3309F482
:1044F0004BC068F48233F1F028F4893209F047C0E8
:1045000085E110C0833319F18433D9F140C08E3373
:10451000D9F1D0F18634C1F18734B1F138C08EE1E0
:1045200001C08DE38093DB0634C08EE3FBCFC092E5
:10453000DB062FC08091D9069091DA0649968B3F11
:1045400091056CF01093DA060093D90611C08091A2
:10455000D9069091DA064997853091052CF0909311
:10456000DA068093D90604C0F092DA06E092D90602
:104570006091D9067091DA068091DE060E94BF092B
:1045800008C0D092DB0605C0C093DB0602C0B09223
:10459000DB060E94C91A68EC70E080E090E00E949F
:1045A000430A8091DB068D3339F08E3341F08C3332
:1045B00029F58DE096E005C08DEE95E002C08DEC0A
:1045C00095E00E9452061AC00E947D0A6093F00690
:1045D0007093F1068093F2069093F3062091EC0617
:1045E0003091ED06621B730B693E73400CF467CE8D
:1045F0008091EB060E94F910D093F4068091F406A6
:10460000882311F30E947D0A6093EC067093ED06F7
:104610008093EE069093EF061092F406D5CF0E9499
:104620006D128DE096E00E944E078DEE95E00E949F
:104630004E078DEC95E00E944E0768EC70E080E03C
:1046400090E00E94430A0E946D0832CEAF92BF9262
:10465000CF92DF92EF92FF920F931F93CF93DF934E
:10466000CDB7DEB768970FB6F894DEBF0FBECDBFEB
:104670001092D8041092D70498EEC92E93E0D92E48
:10468000E12CF12CC092D904D092DA04E092DB0440
:10469000F092DC0486E191E09093D6048093D504F7
:1046A00085EC90E09093E2048093E10484EC90E048
:1046B0009093E4048093E30480EC90E09093E6040C
:1046C0008093E50481EC90E09093E8048093E70404
:1046D00082EC90E09093EA048093E90486EC90E009
:1046E0009093EC048093EB041092EE041092EF048C
:1046F0001092F0041092F10480E5809372051092FC
:1047000073051092790510927A0510927D0510922A
:104710007F0582E090E0A0E0B0E080938005909378
:104720008105A0938205B09383051092970510929E
:10473000A1051092A00588E291E090939F058093D7
:104740009E051092A3051092C0051092BF05C0925D
:10475000C105D092C205E092C305F092C40584E37E
:1047600091E09093BE058093BD05109213071092BF
:1047700012078CE791E0909311078093100787E26E
:104780008093140784E18093190784E080931A07CB
:1047900010921B071092F8061092F706C092F906C5
:1047A000D092FA06E092FB06F092FC0628E531E092
:1047B0003093F6062093F50610920F0710920E071D
:1047C0001092010711E01093F4068093EB0661E06C
:1047D0000E9483098BE490E09093DA068093D906D7
:1047E0008AE08093DB061093E70685E08093DE067F
:1047F00061E00E94830980E197E09093E90680934D
:10480000E80685EF96E09093DD068093DC0683E072
:104810008093EA0661E00E94830987E08093D706CF
:1048200060E00E94830988E08093D50660E00E94E2
:10483000830986E08093D30660E00E94830910928A
:10484000300610922F06C0923106D0923206E092C6
:104850003306F092340686E491E090932E0680931E
:104860002D061092440610924306109246061092AE
:104870004506109248061092470610924A0610927A
:10488000490680914B068E7F8D7F80934B068695DF
:104890008170682F612789E00E94530961E089E0F7
:1048A0000E948309E7ECF0E0E491E0933D06E3EB3E
:1048B000F0E0E491F0E0EE0FFF1FEA56FF4F859124
:1048C000949190933F0680933E0660E08AE00E94B8
:1048D000830980914B0681FD04C061E08AE00E945B
:1048E00053098AE080933906E8ECF0E0E491E09324
:1048F0003A06E4EBF0E0E491F0E0EE0FFF1FE05643
:10490000FF4F8591949190933C0680933B0663EC16
:1049100071E0CE0143960E94811466EC71E0CE01F5
:104920000D960E94811469EC71E0CE0107960E94F9
:1049300081146CEC71E0CE0101960E948114CE01CD
:1049400043965C0106976C0106977C018E010F5F10
:104950001F4F2DE236E042E361E38DE096E00E94D6
:10496000D305C8010E947C14C7010E947C14C601B3
:104970000E947C14C5010E947C146FEC71E0C5019B
:104980000E94811462ED71E0C6010E94811465ED00
:1049900071E0C7010E94811468ED71E0C8010E94B6
:1049A00081142DE236E044E363E38DEE95E00E944E
:1049B000D305C8010E947C14C7010E947C14C60163
:1049C0000E947C14C5010E947C146BED71E0C5014E
:1049D0000E9481146EED71E0C6010E94811461EEA7
:1049E00071E0C7010E94811464EE71E0C8010E9469
:1049F00081142DE236E046E365E38DEC95E00E94FC
:104A0000D305C8010E947C14C7010E947C14C60112
:104A10000E947C14C5010E947C1480E197E290936F
:104A2000CB058093CA0589E18093CC0568960FB6C3
:104A3000F894DEBF0FBECDBFDF91CF911F910F91D4
:104A4000FF90EF90DF90CF90BF90AF9008951F93AD
:104A5000FC0199278827BC01E89411911032E9F3F1
:104A6000193010F01E30C8F31B3251F01D3249F4DA
:104A7000689406C00E944E25610F711D811D911D15
:104A8000119110531A30B0F33EF4909580957095C3
:104A900061957F4F8F4F9F4F1F910895592F482F3A
:104AA000372F262F660F771F881F991F660F771FD6
:104AB000881F991F620F731F841F951F660F771F32
:104AC000881F991F08950E94A525A59F900DB49F4A
:104AD000900DA49F800D911D112408952F923F9257
:104AE0004F925F926F927F928F929F92AF92BF92FE
:104AF000CF92DF92EF92FF920F931F93CF93DF93AA
:104B0000CDB7DEB7CA1BDB0B0FB6F894DEBF0FBE06
:104B1000CDBF09942A88398848885F846E847D8453
:104B20008C849B84AA84B984C884DF80EE80FD8055
:104B30000C811B81AA81B981CE0FD11D0FB6F894CB
:104B4000DEBF0FBECDBFED010895A29FB001B39FA0
:104B5000C001A39F700D811D1124911DB29F700D86
:104B6000811D1124911D089597FB072E16F40094C2
:104B700007D077FD09D00E94EA2507FC05D03EF456
:104B8000909581959F4F0895709561957F4F0895F9
:104B9000A1E21A2EAA1BBB1BFD010DC0AA1FBB1F41
:104BA000EE1FFF1FA217B307E407F50720F0A21BB3
:104BB000B30BE40BF50B661F771F881F991F1A9420
:104BC00069F760957095809590959B01AC01BD014A
:104BD000CF010895AA1BBB1B51E107C0AA1FBB1F31
:104BE000A617B70710F0A61BB70B881F991F5A9579
:104BF000A9F780959095BC01CD010895EE0FFF1F98
:104C00000590F491E02D0994CF93DF9382309105C4
:104C100010F482E090E0E0911E07F0911F0720E081
:104C200030E0C0E0D0E0309711F140815181481769
:104C30005907C0F04817590761F482819381209782
:104C400019F09B838A832BC090931F0780931E07C4
:104C500026C02115310519F04217530718F49A019F
:104C6000BE01DF01EF010280F381E02DDCCF2115D1
:104C7000310509F1281B390B2430310590F41296C7
:104C80008D919C9113976115710521F0FB01938320
:104C9000828304C090931F0780931E07FD01329604
:104CA00044C0FD01E20FF31F81939193225031091B
:104CB0002D933C933AC020911C0730911D07232B64
:104CC00041F4209106013091070130931D07209394
:104CD0001C0720910401309105012115310541F493
:104CE0002DB73EB74091080150910901241B350BA7
:104CF000E0911C07F0911D07E217F307A0F42E1BAB
:104D00003F0B2817390778F0AC014E5F5F4F24172F
:104D1000350748F04E0F5F1F50931D0740931C0747
:104D20008193919302C0E0E0F0E0CF01DF91CF9159
:104D300008950F931F93CF93DF93009709F48CC0CE
:104D4000FC0132971382128200911E0710911F07F7
:104D50000115110581F420813181820F931F20916B
:104D60001C0730911D072817390779F5F0931D07A7
:104D7000E0931C0771C0D80140E050E0AE17BF07B8
:104D800050F412962D913C911397AD0121153105E8
:104D900009F1D901F3CF9D01DA01338322836081C8
:104DA0007181860F971F8217930769F4EC012881A0
:104DB0003981260F371F2E5F3F4F318320838A8131
:104DC0009B8193838283452B29F4F0931F07E09303
:104DD0001E0742C01396FC93EE931297ED01499182
:104DE00059919E01240F351FE217F30771F480815A
:104DF0009181840F951F029611969C938E938281C8
:104E0000938113969C938E931297E0E0F0E0D80183
:104E100012968D919C911397009719F0F8018C01CF
:104E2000F6CF8D919C9198012E5F3F4F820F931F7B
:104E300020911C0730911D072817390769F4309716
:104E400029F410921F0710921E0702C013821282CB
:104E500010931D0700931C07DF91CF911F910F91B5
:104E60000895A0E0B0E0E7E3F7E20C947225EC01CE
:104E7000009721F4CB010E940426B8C0FC01E60F84
:104E8000F71F9C0122503109E217F30708F4ACC068
:104E9000D9010D911C91119706171707B0F0053035
:104EA000110508F49FC0C80104978617970708F4F6
:104EB00099C002501109061B170B019311936D93B2
:104EC0007C93CF010E9499268DC05B01A01AB10A84
:104ED0004C01800E911EA0911E07B0911F0740E06B
:104EE00050E0E12CF12C109709F44AC0A815B9053F
:104EF000D1F56D907C901197630182E0C80ED11CB2
:104F0000CA14DB0480F1A3014A195B096A0182E03B
:104F1000C80ED11C1296BC9012971396AC91B5E0B6
:104F2000CB16D10440F0B282A38351834083D901D0
:104F30006D937C930AC00E5F1F4FC301800F911FBA
:104F4000F90191838083EB2DFA2FE114F10431F004
:104F5000D7011396FC93EE93129744C0F0931F076A
:104F6000E0931E073FC08D919C91119748175907F8
:104F700008F4AC017D0112960D90BC91A02DB3CF29
:104F800080911C0790911D0788159905E1F446173B
:104F90005707C8F48091040190910501009741F4EE
:104FA0008DB79EB74091080150910901841B950B64
:104FB000E817F907C8F4F0931D07E0931C07F901FF
:104FC000718360830FC0CB010E9404267C0100978F
:104FD00059F0A801BE010E940D28CE010E94992619
:104FE000C70104C0CE0102C080E090E0CDB7DEB7BB
:104FF000EEE00C948E2581E090E0F8940C94372834
:10500000FB01DC0104C08D910190801921F4415015
:105010005040C8F7881B990B0895FB01DC0102C0C2
:1050200001900D9241505040D8F70895FC018191B4
:10503000861721F08823D9F7992708953197CF0152
:105040000895FB01DC0101900D920020E1F7089525
:10505000FB01DC014150504048F001900D920020CE
:10506000C9F701C01D9241505040E0F7089510E08B
:10507000CAE6D0E004C0FE010E94FE252196CB3690
:08508000D107C9F7F894FFCF36
:10508800FFFFFFFF00002007800000004000140021
:10509800540000000000040871079C074B08CD0766
:1050A800AB07BF0700000000771071072A0229022A
:1050B80000000000FA01CA012A02A401C201B301DA
:1050C800A50100000000E50071072A02E40039018B
:1050D8005101CC0000000000B6004E022A02460230
:1050E8009500CE03D80300000000A00871072A022B
:1050F8002902A008A008A00800000000720B710790
:105108002A02290200000000A00871072A022902C9
:105118000D0A0031300032300032310032320033B3
:10512800300033310033320033350034300034314D
:105138000035300035310035320036300037300068
:105148003731004D31004431003142003141004DCA
:1051580032004432003242003241004D33004433C1
:0A516800003342003341002F000025
:00000001FF
